:03000000020525D1
:0C052500787FE4F6D8FD75816802056C53
:1005B1002020253032643A253032643A25303264C5
:1005C1003A25303264003120253032643A25303208
:1005D100643A253032643A253032640032202530C5
:1005E10032643A253032643A253032643A25303269
:1005F10064003320253032643A253032643A2530A4
:0806010032643A253032640036
:1006BB0001460002490000026700000247000002E9
:1006CB004B0000184D00000000000000000000006F
:0D06DB000000000000000000000000000012
:0A06E900C2918FA0D2927F017E0023
:1006F300E4FDFCC3ED9FEC9E5015E4FBFA0BBB003D
:0F070300010AEB646F4A70F50DBD00010C80E434
:0107120022C4
:0A079900C2901206E9C2920206F3B4
:0A07A300D2901206E9C2920206F39A
:10075D007F0F7E001206F37F381207997F0C120768
:0B076D00997F061207997F010207998F
:10073A00EF7004A9058015BF0106ED2440F9800C6D
:10074A00EDBF02052410F980032450F9E94480FF23
:03075A00020799FA
:0B068B00E4FD12073A7B007A007922A0
:100696008B328A338934AB32AA33A9341204976079
:1006A600130534E5347002053314F9120497FF126A
:0506B60007A380E22211
:10078900438901758CD8758AF0D2A9C28CD2AF225F
:03000B00020609E1
:10060900C0E0758CD8758AF0054AE54A700205493B
:10061900646445497030F549F54A0568E568700232
:100629000567643C4567701EF567F5680548E54848
:1006390070020547643C4547700CF547F548054C81
:09064900E54C7002054BD0E032D3
:1004020020B305B28C30B3FD20B43F208C39E4F523
:100412004BF54CF547F548F567F568F549F54AF5AA
:1004220046F565E4F566E56575F008A4244DF8E542
:100432006625E028F8E4F608F60566E566B404E603
:100442000565E565B403DC30B4FD20B247E546C37B
:100452009403503D308C3AE54675F008A4244DF8DB
:10046200A64B08A64CE54675F008A4244FF8A6470B
:1004720008A648E54675F008A42451F8A66708A620
:1004820068E54675F008A42453F8A64908A64A056B
:050492004630B2FD221E
:100652007535FF7536057537B1854B38854C39854B
:10066200473A85483B85673C85683D85493E854AD2
:100672003F7B007A00792212006AE4FDFF12073AFA
:090682007B007A00792202069641
:10036A007535FF7536057537C7854D38854E39851C
:10037A004F3A85503B85513C85523D85533E8554C5
:10038A003F7B007A00792212006A7F0112068B7580
:10039A0035FF7536057537DD8555388556398557E4
:1003AA003A85583B85593C855A3D855B3E855C3F7D
:1003BA007B007A00792212006A7F0212068B753559
:1003CA00FF7536057537F3855D38855E39855F3A81
:1003DA0085603B85613C85623D85633E85643F7BE4
:1003EA00007A00792212006AE4FD7F0312073A7B41
:0803FA00007A00792202069648
:1007780012078912075D12065212036A12040280D8
:01078800F57B
:10053100020778E493A3F8E493A34003F68001F261
:1005410008DFF48029E493A3F85407240CC8C333CB
:10055100C4540F4420C8834004F456800146F6DF9A
:10056100E4800B01020408102040809006BBE47E69
:10057100019360BCA3FF543F30E509541FFEE4938F
:10058100A360010ECF54C025E060A840B8E493A356
:10059100FAE493A3F8E493A3C8C582C8CAC583CA81
:1005A100F0A3C8C582C8CAC583CADFE9DEE780BE39
:0106E8000011
:10049700BB010689828A83E0225002E722BBFE0263
:0904A700E32289828A83E4932296
:10000E00E5412435F8E6054122783230070278358D
:10001E00E475F0011204EF0204972000EB7F2ED25C
:10002E00008018EF540F2490D43440D4FF30040BCA
:10003E00EF24BFB41A0050032461FFE5426002159D
:10004E00420545E5457002054430070D7832E475EA
:10005E00F0011204EFEF0204DD0207137403D2075E
:10006E008003E4C207F5418B328A338934E4F542CA
:10007E00F544F545E54260077F2012004980F5758D
:10008E0043FFC201C200C202C203C205C206C208B9
:10009E00120017FF700D3007057F0012005AAF4592
:1000AE00AE4422B4255FC2D5C204120017FF24D07D
:1000BE00B40A00501A75F00A784230D50508B6FF1A
:1000CE000106C6A426F620D5047002D20380D924D8
:1000DE00CFB41A00EF5004C2E5D20402025AD20184
:1000EE0080C6D20080C0D20280BCD2D580BAD205E2
:1000FE0080B47F201200492002077401B5420040EF
:10010E00F112000EFF120049020082D208D20680C0
:10011E009512000EFB12000EFA12000EF94A4B70E9
:10012E0006792B7A037BFF20022EE542602A7E00A1
:10013E008E827583001204B060060EEE654370F079
:10014E00C2D5EBC0E0EAC0E0E9C0E0EE1202A1D0F9
:10015E00E0F9D0E0FAD0E0FB120497FF60AAEBC002
:10016E00E0EAC0E0E9C0E0120049D0E02401F9D095
:10017E00E03400FAD0E0FBE5430460DCD543D980DF
:10018E00877BFF7A02799DD202809C79108002795A
:10019E0008C206C2088008D2D5790A8004790AC23C
:1001AE00D5E543047002F543E4FAFDFEFF12000E9E
:1001BE00FC7B0820011312000EFD7B1030000A128A
:1001CE00000EFE12000EFF7B20EC3382D592D5502E
:1001DE0013C3E43000069FFFE49EFEE42001039D5E
:1001EE00FDE49CFCE4CBF8C201EC700CCFCECDCC80
:1001FE00E824F8F870F38017C3EF33FFEE33FEED0B
:10020E0033FDEC33FCEB33FB994002FB0FD8E9EBEB
:10021E00300105F8D0E0C448B201C0E00AEC4D4E02
:10022E004F78207B0070C2EAB5430040BCC0E0129C
:10023E0002A3D0F0D0E0200104C4C0E0C4B201C0DB
:10024E00F0120032D0F0D5F0EB0200821204FF0162
:10025E001F5301995800F04C00EC42019D4F01A52F
:0F026E004401A54901054301AB55018F46018F9E
:10027D0045018F47034B5000F42D00F82E011B2B29
:10028D0000FC2301192003342A00B4480000011397
:10029D003F3F3F00790AA2D5200314300509B9105C
:1002AD00020404B9080104A2D5200602500104205D
:1002BD0002689202B542005034C0E07F203003192D
:1002CD007F30A20272067205500F1202FAC202C2EC
:1002DD0006C205C2087F30800F300503E9C0E01269
:1002ED000049300503D0E0F9D0E0B542CC30051718
:1002FD007F30B9100C1200497F583004077F788089
:10030D0003B908031200493002057F2D0200497F11
:10031D00202008F87F2B2006F322920280CF286E32
:10032D00756C6C2900D20112000E3001F8C20178F3
:10033D004230D50108F60200B42D50434958120041
:10034D000E2403B405004001E49003469312003AD5
:0D035D00743A12003AD2037542040201996D
:1004B000BB010CE58229F582E5833AF583E0225001
:1004C00006E92582F8E622BBFE06E92582F8E2224B
:0D04D000E58229F582E5833AF583E4932265
:1004DD00BB010689828A83F0225002F722BBFE01FE
:0204ED00F322F8
:1004EF00FAE6FB0808E6F925F0F618E6CA3AF6220E
:1004FF00D083D082F8E4937012740193700DA3A38C
:10050F0093F8740193F5828883E47374029368609F
:06051F00EFA3A3A380DF9F
:10071300EFB40A07740D12071E740A309811A899D2
:10072300B8130CC2983098FDA899C298B811F63046
:0707330099FDC299F599221E
:00000001FF
